:020000040800F2
:10000000780B0020A90100084B240008811E00087D
:1000100049240008FF0B0008D12700080000000059
:10002000000000000000000000000000DD260008C5
:10003000510C0008000000004D240008DF260008D5
:10004000C3010008C3010008C3010008C301000880
:10005000C3010008C3010008530C0008C3010008D5
:10006000C3010008C3010008C3010008C301000860
:10007000C3010008C3010008C3010008C301000850
:10008000C3010008C3010008C3010008C301000840
:10009000C3010008C3010008C3010008C301000830
:1000A000C3010008C3010008C3010008C301000820
:1000B000C3010008C3010008C3010008C301000810
:1000C000C3010008C3010008C3010008C301000800
:1000D000C3010008C3010008C3010008C3010008F0
:1000E000C3010008C3010008C301000800F002F8C2
:1000F00000F04AF80AA090E8000C82448344AAF178
:100100000107DA4501D100F03FF8AFF2090EBAE875
:100110000F0013F0010F18BFFB1A43F0010318473B
:100120002054000040540000103A24BF78C878C121
:10013000FAD8520724BF30C830C144BF04680C60ED
:10014000704700000023002400250026103A28BF35
:1001500078C1FBD8520728BF30C148BF0B60704739
:10016000662903F02E87642900F052800020704732
:100170001FB500F0CBFB04000020002103F042F982
:10018000E0601FBD10B510BD00F0C4FC1146FFF7C4
:10019000EFFF02F031FB00F0E2FC03B4FFF7F2FFE7
:1001A00003BC00F025FD00000948804709480047CE
:1001B000FEE7FEE7FEE7FEE7FEE7FEE7FEE7FEE717
:1001C000FEE7FEE704480549054A064B7047000074
:1001D00049270008ED00000878050020780B002072
:1001E00078070020780700200FB41CB5074B06AA3B
:1001F0007B4469460090059800F06FFB002069463B
:1002000000F07EFB1CBC5DF814FB00000D07000035
:100210002DE9F0410646002410687529314616A5DF
:1002200010D0AFF30080002802DA404213A507E0A7
:1002300031688A0701D512A502E0490704D511A546
:10024000012401E0AFF3008000210A2206F1240717
:1002500009E0B0FBF2FCB0FBF2F302FB1C00303013
:1002600078541846491C0028F3D123462A463046C4
:10027000BDE8F04100F0C4B8000000002D0000000F
:100280002B000000200000002DE9F0474FF0000A8D
:1002900089460446C0F820A02046E1688847002827
:1002A00076D0252806D0D4E901219047206A401C49
:1002B0002062F1E7E168204600258847C4F81CA0C9
:1002C00006460027C4F818A02A2E09D0304603F0AD
:1002D0007BF838B304EB8708303EC8F8186019E0A3
:1002E00059F8041B204604EB87029161E1688847B6
:1002F000012F064618D1E069002820DA25F02005F4
:100300001DE0D8F8180000EB800006EB4000303804
:10031000C8F818002046E1688847064603F054F8FC
:100320000028EED1012F0AD02E2E08D12046E168F8
:1003300088477F1C0646022F45F02005C4DBA069D4
:10034000002803DA404245F00105A061E80701D02A
:1003500025F01005B6B1A6F14100192802D82036C3
:1003600045F400654A463146204625604D46FFF774
:10037000F7FE58B1012806D0ED1D25F0070000F169
:10038000080989E704E005F1040985E730468AE7B2
:10039000206ABDE8F0874FF0000200B5134694468E
:1003A0009646203922BFA0E80C50A0E80C50B1F1CD
:1003B0002001BFF4F7AF090728BFA0E80C5048BFE1
:1003C0000CC05DF804EB890028BF40F8042B08BF7F
:1003D000704748BF20F8022B11F0804F18BF00F87B
:1003E000012B704770477047704710B500F092FAC4
:1003F000006810BD10B5044600F08CFA046010BD12
:100400002DE9F0470D4699469246044600F124082E
:100410000168880604D5E06921F01001216000E040
:100420000120A84201DD471B00E00027A1697A19DD
:1004300002EB0900081AA0612078C00602D4204609
:10044000AFF30080002608E0D4E901211AF8060085
:100450009047206A401C761C20624E45F4DB2078D1
:10046000C0060AD52046AFF3008006E0D4E901219A
:1004700030209047206A401C2062381EA7F10107F7
:10048000F4DC07E0D4E9012118F805009047206A60
:10049000401C2062281EA5F10105F3DC2046AFF3C5
:1004A00000802078000602D50220BDE8F0870120F8
:1004B000FBE72DE9FF4F0C461E464FF0FF378BB090
:1004C000D2E90001DDF860800A908A46C1F30A553E
:1004D00005B93D46002108464FF00000BAF1000F73
:1004E00000F4400005DA00EB80004FF4400101EA1F
:1004F00050004FEA9059B9F1010F00DDB9460A9852
:1005000050EA4A000ED044F61050A5F2FF3545439C
:100510002F14B8F1000F1ED07542291E1EDDC9F13F
:1005200000021CE0B8F1010F4FF0000001D03021B3
:1005300003E0F24305E02154401CB042FBDB3046AF
:100540000022002121540B99C1F80880C1E9002044
:100550000FB0BDE8F08FBD1B6D1CDEE74A4600DA28
:10056000694206A800F060FA06AB93E8070003AB07
:1005700083E8070050460A9902F04AFB8DE807001D
:10058000A0F500501F3800900398002D0ADD42F2BC
:100590001F014A460844002303A90390684602F05D
:1005A000B3FD09E0A0F500504A461F38002303A917
:1005B0000390684602F0BDFD8DE807000004000CC2
:1005C00003D04FF0FF30410800E01046B8F1000FB3
:1005D00003D00022009215461EE0751E05D400F0DF
:1005E0009DF9303262556D1EF9D5B346012208439C
:1005F00002D000227F1C04E02078302801D10022A4
:100600007F1E002A099784D01DE0112D07DA00F023
:1006100085F9303262556D1C50EA0102F5D108436C
:1006200002D00098C8B10EE00021681E05E0235CEE
:10063000625C63542254401E491C8142F7DBAB4686
:10064000A81B401E0990002004F80B000B98099A83
:10065000C0F80880C0E9002B7AE711264FF00008A7
:1006600057E72DE9F04F88460446D21D22F00701D6
:1006700091B0D1E90001CDE90A0102F091FE0246F4
:100680000B98C00F01D02D2007E02068810701D50D
:100690002B2002E0202101EAC000032A099001D0AA
:1006A000072A05DB03464146204600F07DF90BE1B1
:1006B0002078800601D5E06900E00620B8F1650FDA
:1006C000814606D0B8F1660F18D0B8F1670F70D127
:1006D00031E00020B9F1110F009001DB112301E09E
:1006E00009F101030AAA01A90CA8FFF7E2FEDDE95E
:1006F0000C70002609F10105834647E001204B46B6
:1007000000904FF000470AAA01A90CA8FFF7D1FEFC
:10071000DDE90DB00C995D46002610B909F1010024
:100720000D18B9EB050003D4C0F1FF3609F101053E
:10073000A5EB09002BE0B9F1010F01DA4FF0010937
:100740000020B9F1110F0090484601DD112300E0AF
:1007500003460AAA01A90CA8FFF7ABFEDDE90C705D
:100760004D4600268346207800070AD4AB4500DAC0
:100770005D4601A8012D04DD411911F8011C302945
:1007800007D04F4502DA17F1040F04DA0120824640
:100790000FE06D1EEEE7002F02DCED1B3E4403E090
:1007A000781CA84200DD7D1CB81B00F1010A4FF047
:1007B00000472078000703D4AA4501DB4FF0FF3A39
:1007C0000021B7F1004F0DF143088DF8431024D0FC
:1007D00002202B23002F01DA7F422D230A21021E43
:1007E000A0F1010000DC5FB197FBF1FC97FBF1F297
:1007F00001FB1C7C17460CF1300C08F801CDEEE72C
:10080000A8F1010003702188090501D5452100E008
:100810006521A0F1010800F8011C09980FA9A1EBBE
:100820000807FF1D00B10120411901EBEA70A16921
:100830003844081A401EA0612078C00602D4204621
:10084000AFF30080099828B1D4E901219047206ACC
:10085000401C20622078C00622D52046AFF30080DD
:100860001EE0002E04DBB34502DD01A8805D00E040
:100870003020D4E901219047206A401C2062761C78
:10088000AAF101005FEA000A0AD100F03FF8C0684F
:100890000168405CD4E901219047206A401C206235
:1008A000281EA5F10105DCDC07E0D4E9012118F8D8
:1008B000010B9047206A401C2062381EA7F10107F7
:1008C000F3DC2046AFF30080032011B041E60000C6
:1008D00001694A1C02610878704700B58FB0CDE904
:1008E00001310021059105497944CDE903101146F4
:1008F0006846FFF7C9FC0FB000BD0000E5FFFFFF31
:100900000A6802F8010B0A6070470000004870474F
:10091000D000002000487047B000002030B5B0F192
:100920000A0271F100034FEA900E4EEA817EB0EBAD
:100930000E0061EB91014FEA101E4EEA017E10EBB2
:100940000E0041EB11114FEA102E4EEA016E10EB32
:100950000E0041EB11214FEA104E4EEA014E10EB12
:100960000E0041EB1141401841F100014FEAD00067
:1009700040EA41704FEAD1014FEA810444EA9074A1
:1009800010EB800544EB01046D1944EB0404521B89
:10099000A3414FF0000348BF0A3200D530BD401CD0
:1009A00041F1000130BD00002DE9F0411F46044631
:1009B00003260168072A01F4006004DB08B116A5CC
:1009C00005E016A503E008B115A500E015A521F086
:1009D00010002060A069C01EA0610FB1401EA06180
:1009E0002046AFF300804FB1D4E90121384690474B
:1009F000206A401C2062C01C206206E0206AFAE7E0
:100A0000D4E9012115F8010B9047761EF8D2204653
:100A1000AFF30080BDE8F0814E414E006E616E0084
:100A2000494E4600696E66002DE9F047814616463C
:100A30008AB0354878440DC88DE80D0032487844B6
:100A4000801C03AC0DC884E80D0041F69B300844BF
:100A5000372190FBF1F290FBF1F5A5F1800501FB48
:100A600012041B3C02D56442012000E00020DFF8A4
:100A700098A080460027FA44AAF1BE0A0EE0E007DB
:100A80000AD03246684607EB470101230AEB810191
:100A900002F04FFB8DE8070064107F1C002CEED1A4
:100AA000194F7F44AE3F19E0E80715D007EB04105B
:100AB0000DF1180A90E80E008AE80E00C068F042B6
:100AC00001D1981908903246012306A903A802F023
:100AD00030FB03AB83E807006D10641C002DE3D1ED
:100AE0004FF0010332466946B8F1000F03A802D067
:100AF00002F00AFB01E002F01CFBC9E90001C9F8A1
:100B000008200AB0BDE8F0870C36000000487047A6
:100B1000B00000207546FFF7F9FFAE4605006946B4
:100B2000534620F00700854618B020B5FFF74AFB72
:100B3000BDE820404FF000064FF000074FF00008DE
:100B40004FF0000BAC46ACE8C009ACE8C009ACE81B
:100B5000C009ACE8C00921F007018D46704710B507
:100B60000446AFF300802046BDE81040FFF715BBF8
:100B70004FF0013C50F8042B51F8043B9A4221D12C
:100B8000A2EB0C03934313EACC1317D150F8042BB8
:100B900051F8043B9A4215D1A2EB0C03934313EA9C
:100BA000CC130BD150F8042B51F8043B9A4209D1D5
:100BB000A2EB0C03934313EACC13DBD04FF00000FD
:100BC000704700BFD01A01BAB1FA81F101F01801E3
:100BD00022FA01F0CB40DBB2C0B2C01AC1F1200151
:100BE0002CFA01F3D11A914311EAC311E6D17047EF
:100BF00001491820ABBEFEE7260002007047FEE761
:100C000080B50D48417839B1002141704120332130
:100C100001F052FC09A006E001214170412033217E
:100C200001F04AFC08A00749012201F021FDBDE8BE
:100C3000804001F031BD00BF0000002052756E6E93
:100C4000696E67009800002050617573656420002C
:100C50007047202000F016B8B0B5044600F000F947
:100C600005468148611C007818BF044400F0F8F87C
:100C7000401BA042FAD3B0BD202808BFFFF7C0BF79
:100C80007047000003490A68024214BF08607047B9
:100C9000FFF7F2BF140401402DE9FC4F5A4A042328
:100CA0004FF0000B4FF001084FF00F0E4FF000090E
:100CB0000025904208BF032300930A6832FA05F327
:100CC00008BFBDE8FC8F08FA05F73A4200F09780AC
:100CD0004A68032A16D9112A24D0122A26D04E4B4C
:100CE0009A4213D04D4B9A4210D04D4B9A420DD0A0
:100CF0004C4B9A420AD04C4B9A4207D04B4B9A42EB
:100D000004D020E0DFE802F00216191D8A6832B133
:100D1000012A4FF0080914BF4761076113E04FF043
:100D2000040910E0CA6802F104090CE0CA6802F183
:100D30000C0908E0D1F80C9005E0CA6802F1080936
:100D400001E04FF00009082D5A46044628BF203A1A
:100D500028BF043426680EFA02F309FA02F226EAE2
:100D600003031A432260CA79D20648D5294A0BF0F8
:100D70000C0C1346126842F001021A601A680EFA4F
:100D80000CF302F001020192204A019CAC08A2F58A
:100D90007E7656F8242022EA030A254A904208D09B
:100DA000244A904207D0244A009B904208BF022365
:100DB00002E0002300E0012303FA0CF242EA0A02F7
:100DC00046F82420114E4A68336812F4803F0CBF65
:100DD000BB433B4333609303736854BFBB433B4304
:100DE0007360D302B36854BFBB433B439202084ACB
:100DF000B3601346126854BFBA433A431A600BF10A
:100E0000040B013559E700BF001401400004014004
:100E10000C040140181002400000111000001210D4
:100E200000002110000022100000311000003210DC
:100E300000080140000C014000100140806808409B
:100E400018BF01207047C26802EA0103914341EADA
:100E5000034101617047002A08BF0904016170471E
:100E600001488068704700BF84000020B0B5044688
:100E700058B394F83D0028B9002084F83C0020467F
:100E800000F026FC242084F83D002068016821F051
:100E900001010160016841F400410160016821F431
:100EA0000041016000F072FD4C494D4B00224D4D58
:100EB00088424FF0000138BF0121984238BF01221B
:100EC0006368AB4238BF0A460AB10120B0BD46494B
:100ED000B0FBF1F221684D6825F03F0515434D60E8
:100EE0000D6A25F03F0C414DAB4213D80132013859
:100EF00042EA0C020A625A004CF6FF73B0FBF2F0B1
:100F000001306FF31F30042898BF0420CA6922EA19
:100F1000030C3AE04FF49675A0F1010E6A434FF4CA
:100F20007A75B2FBF5F24CF6FF75013242EA0C021B
:100F30000A62CA6922EA050CA26842B11920042596
:100F40005843BEFBF0F0013065F31F3006E003EBC1
:100F50004300BEFBF0F001306FF31F30000509D0F5
:100F600052B1192004225843BEFBF0F0013062F365
:100F70001F3008E0012008E003EB4300BEFBF0F067
:100F800001306FF31F3040F4004040EA0C00C861AC
:100F90000868D4E9072320F0C000104348F2FF326C
:100FA0001843086088689043D4E90323184310432A
:100FB0008860C868D4E9052320F0FF001043184377
:100FC000C860086840F0010008600020202120640B
:100FD00084F83D10206384F83E00B0BD80841E007C
:100FE00000093D00A186010040420F00A0860100DB
:100FF0002DE9FE4F1D4690460E460446FFF730FF92
:10100000074694F83D0020280BD151492046012283
:101010001923009701F058F818B994F83C000128FA
:1010200006D14FF0020B5FFA8BF003B0BDE8F08FF2
:10103000012006F0FE094FF0010AA0264FF0010B37
:1010400084F83C002068016811F0010F02BF0168BC
:1010500041F001010160016821F400610160242177
:1010600084F83D10002121643A49E16235E0C1F87D
:101070001090FFF7F5FE074607E0FFF7F1FE15B108
:10108000C01BA84201D984F83D60206841694269CB
:1010900094F83D30A02B05D001F0020102F48062EB
:1010A0001143EAD0202184F83D104169026842F4DE
:1010B000007211F0020F026028D127490122192382
:1010C000416123492046009700F0FEFF0028AAD185
:1010D0000AF1010AC24532D22068016800222B467B
:1010E00041F48071016020464FF00111009700F03B
:1010F000EBFF21680028BAD008684FF0030B10F40A
:10110000807F1CBF4FF4007020648CE70025012213
:1011100019234FF0010B0295416902910C49806936
:10112000029002980097204600F0CEFF00287FF43E
:101130007AAF202084F83C504FF0000B05E00020EF
:101140004FF0010B84F83C00202084F83D006AE752
:10115000020010000000FFFFFFFBFFFF2DE9FC472E
:101160001F46164689460446FFF77AFE824694F8E3
:101170003D0020280ED1634D204601221923CDF8D1
:1011800000A005F5702100F09FFF18B994F83C000D
:10119000012804D10220C0B202B0BDE8F0870120CE
:1011A000A5F10212DDF8288084F83C00206801686F
:1011B00011F0010F02BF016841F0010101600168F7
:1011C00021F400610160212184F83D10102184F890
:1011D0003E10002121646785618DE262666221858F
:1011E000E16A11F5803F18BF01291CD1016841F463
:1011F0008071016020464FF0011100224346CDF876
:1012000000A000F061FF40B12068006810F4807F0A
:101210001CBF4FF40070206425E02069B0F5804FBA
:1012200007D1FE2014E00829E0D0216B1229DDD07F
:10123000E0E7062021684246534600EAD91040F014
:10124000F0000861A91D204600F07AFF58B9FF2080
:10125000216800EA090042465346086120462946B3
:1012600000F06EFF08B1012095E700204FF6FF76F1
:101270000190206841690191806901900198208D59
:1012800088B320464146524600F0E1FF10BB606A39
:101290002168024612F8013B0B616262628D013ADD
:1012A0006285228D571E278537424B6918BF13F080
:1012B000040308D0437802300B616062901E2085E1
:1012C000608D0138608520464146524600F0D4FECC
:1012D0000028D4D0206C0428C5D12068016841F4CE
:1012E00000710160BFE72068016841F4007101608E
:1012F000202084F83D00002084F83C0084F83E0063
:1013000049E700BF020001002DE9F04F85B0044617
:1013100000201F4616460D460490FFF7A1FD8146AA
:1013200094F83D0020280CD1E749204601221923DA
:10133000CDF8009000F0C8FE18B994F83C000128E0
:1013400004D10220C0B205B0BDE8F08F0DF138081D
:10135000012298E8030184F83C202268136813F006
:10136000010F02BF136843F001031360136823F4F5
:101370000063136022223B4684F83D20402284F81B
:101380003E200022226461856062D0493246608D31
:10139000E162294620852046CDE9008900F08AFDDA
:1013A000002840F0FB80218D01290DD011BB0020C9
:1013B0000390206841690391816903910399016851
:1013C00041F40071016037E02068016821F4806118
:1013D0000160EFF3108072B600200390206841692D
:1013E0000391816903910399016841F400710160DF
:1013F00062B621E020680229026813D142F400613C
:101400000160EFF3108072B60020039020684169FC
:101410000391816903910399016821F4806101605E
:1014200062B609E042F480610160002103914169E4
:101430000391806903900398208D594FDFF840A9EC
:1014400046F2A81B23258FE086B2032E09D8012E71
:1014500024D1204641464A4600F0C8FE002876D0F6
:101460009CE0204641464A4600F0C0FE002840F07D
:10147000958020680069616A0870606A2168421C72
:101480006262208D01382085638D013B63854B6945
:1014900013F0040F68D0086910705CE020463946EC
:1014A00000224346CDF8009000F00EFE022E17D128
:1014B000002873D1EFF3108072B62068016841F400
:1014C000007101600069616A0870606A01306062E1
:1014D000608D01386085208D0138208562B636E048
:1014E00000285BD12068016821F480610160EFF37E
:1014F000108072B620680069616A0870606A013005
:101500006062618D01396185218D01392185DAF8AB
:101510000010B1FBFBF16943049104990139049176
:10152000049969B321684A6912F0040FF5D00A687A
:1015300042F400720A6009690170606A01306062F9
:10154000208D01382085608D0138608562B6206865
:101550000069616A0870606A01306062208D01383C
:101560002085618D0139618501047FF46DAF2020F4
:1015700084F83D00002084F83C0084F83E00E1E659
:1015800000202021206384F83D1084F83E00216C67
:1015900041F02001216462B684F83C000120D1E6CC
:1015A000040001002DE9FE43994616460F46044605
:1015B000FFF756FC054694F83D0020280BD1424920
:1015C000204601221923009500F07EFD18B994F8F9
:1015D0003C00012804D10220C0B203B0BDE8F08372
:1015E0000DF12808012298E8030184F83C202268C4
:1015F000136813F0010F02BF136843F00103136077
:10160000136823F40063136021224B4684F83D20C5
:10161000402284F83E2000222264618560622B49CA
:101620003246608DE162394620852046CDE900854D
:1016300000F0C4FC08B10120CEE7208D4FF6FF7604
:1016400022E0204641462A4600F001FE20BB616AA6
:101650002268084610F8013B13616062238D581E12
:1016600020853042678DA7F101076785576918BF4C
:1016700017F0040708D0487802311061981E2085C1
:101680006162618D013961850004DAD120464146ED
:101690002A4600F0F1FC40B1206C0428CBD1206830
:1016A000016841F400710160C5E72068016841F4F8
:1016B00000710160202084F83D00002084F83C0087
:1016C00084F83E0088E700BF020010000000FFFF22
:1016D00010B586B00021CDE90411CDE902110168F1
:1016E000114881421DD13A4C00F53840216841F043
:1016F00008012160216801F008010191019912217E
:101700000391C02102910321059102A9FFF7C4FAB8
:10171000606840F400106060606800F400100190A0
:10172000019806B010BD00BF005400401948017870
:10173000826811448160704780B50748016841F0B4
:1017400010010160032000F077F80F2000F006F888
:1017500000F022F8002080BD0020024070B50D4E40
:1017600004464FF47A713078B1FBF0F09149096882
:10177000B1FBF0F000F008FB01250F2C08D838B9B8
:101780004FF0FF3021460022002500F033F874604E
:10179000284670BD8400002082B00D4802220168F6
:1017A00041F001010160016801F00101019101991D
:1017B000416841F080514160406800F080500090E5
:1017C00000980448016862F31A61016002B0704732
:1017D0001810024004000140002808DB00F01F013F
:1017E0000122400902FA01F1014A42F82010704733
:1017F00000E100E010B5164B1B68C3F3022E0EF19A
:10180000040CAEF103048EF00703BCF1070F4FF098
:10181000010C38BF0024042B28BF04230CFA03F367
:10182000013B19400CFA04F3013BA1401A4011435B
:10183000BDE8104000F0CEBF05494FF6FF030A682F
:101840001A4060F30A22034810430860704700BF43
:101850000CED00E00000FA052DE9F0418846044651
:10186000002800F08880464F4FF48050395801F02E
:10187000070141450AD2395821F0070141EA080120
:101880003950385800F00700404574D1206810F0F6
:10189000020F11D0410742BF796841F4E0617960DD
:1018A000010742BF796841F4605179607968A268A4
:1018B00021F0F00111437960C00727D0606801284A
:1018C00004D1396811F4003F08D154E03968022886
:1018D00002D1890102D44EE089074CD5796821F004
:1018E000030108437860FFF7BBFA064641F28835EA
:1018F0007868616800F00C00B0EB810F06D0FFF74C
:10190000AFFA801BA842F3D9032035E04FF4805092
:10191000395801F0070141450AD9395821F007012A
:1019200041EA08013950385800F00700404522D1FB
:10193000206810F0040F05D07968E26821F4E061B6
:1019400011437960000706D57868216920F460505A
:1019500040EAC100786000F031F87968094AC1F3C3
:101960000311515CC8401349086007480068FFF73D
:10197000F5FE002000E00120C0B2BDE8F08100BF0C
:10198000001002405C400008880000200948FA4925
:10199000094A00680968C1F30221515CC8407047D8
:1019A000F748F549044A00680968C1F3C221515C4F
:1019B000C8407047A00000206C40000810B50D4CD6
:1019C0000D48226802F00C03082B18BF10BDC2F3AB
:1019D00083430AA112F4803FCB5C02D10C485843E8
:1019E00010BD216809A25843C1F34041515CB0FBCE
:1019F000F1F010BD0410024000127A000203040549
:101A0000060708090A0B0C0D0E0F1010010200004A
:101A100000093D002DE9FE430446002800F05C81EA
:101A20002078D44ED44FC007B14650D0386800F06B
:101A30000C00042818D0386800F00C00082803D1E6
:101A4000386810F4803F0FD16068A0B1B0F5803FD6
:101A500006D03168B0F5A02F25D141F48020306048
:101A6000306840F4803024E0306810F4003F2ED01D
:101A7000606860BB30E1306820F4803030603068EE
:101A800020F480203060FFF7EBF90546D9F800001C
:101A90004E4610F4003F1AD0FFF7E2F9411B032035
:101AA0006429F3D919E121F480303060306820F4E2
:101AB00080203060FFF7D4F90546306810F4003F0D
:101AC00005D1FFF7CDF9401B6428F6D9E6E0207870
:101AD00080072FD5386810F00C0F08D0386800F058
:101AE0000C0008280BD1386810F4803F07D130680B
:101AF00010F0020F17D02069012814D0ECE0216902
:101B00009E48002900F08A8001210160FFF7A8F9B2
:101B10000546306810F0020F05D1FFF7A1F9401B10
:101B20000228F6D9BAE03068616920F0F80040EA8E
:101B3000C10030602078000730D5A06980B18F489F
:101B40000121C0F88014FFF78BF90546386A10F0C0
:101B5000020F16D1FFF784F9401B0228F6D99DE049
:101B600086480021C0F88014FFF77AF90546386AE4
:101B700010F0020F12D0FFF773F9401B0228F6D9BC
:101B80008CE07F484FF4FA510068B0FBF1F002900E
:101B900000BF0298411E00280291F9D12078400729
:101BA00040F18580B86910F0805F0BD1B8694FF0C3
:101BB000010840F08050B861B86900F08050019091
:101BC000019801E04FF000086E4E484659F80600B3
:101BD00010F4807F14D159F8060040F4807049F861
:101BE0000600FFF73DF90546484659F8060010F48F
:101BF000807F05D1FFF734F9401B6428F4D94DE00C
:101C0000E068F0B1012805D0F969052831D141F02B
:101C10000400F861F86940F0010030E00021016043
:101C2000FFF71EF905464846D9F8000010F0020FEC
:101C30003FF480AFFFF714F9411B03200229F2D9CA
:101C40004BE0F86920F00100F861F86920F0040029
:101C5000F861FFF705F9054641F28836F86910F09A
:101C6000020F1DD0FFF7FCF8411B0320B142F5D94C
:101C700033E021F00100F861F86920F00400F86118
:101C8000FFF7EEF8054641F28836F86910F0020FCA
:101C900006D1FFF7E5F8401BB042F6D903201CE05F
:101CA000B8F1000F1EBFB86920F08050B861E66936
:101CB000002E5DD0386800F00C00082811D1012EEC
:101CC0000AD03868216A00F480328A4204D1616AFD
:101CD00000F4701088424BD00120C0B203B0BDE8C0
:101CE000F0832649002088460866FFF7B9F80546C4
:101CF000022E0DD146464846D9F8000010F0007F6C
:101D000013D0FFF7ADF8411B03200229F3D9E4E714
:101D10004846D9F8000010F0007F29D0FFF7A0F85E
:101D2000411B03200229F3D9D7E7206AB0F5803F91
:101D300005D13968A26821F400311143396039684E
:101D4000626A104321F47411084338600120306640
:101D5000FFF786F804464846D9F8000010F0007FE7
:101D600006D1FFF77DF8011B03200229F3D9B4E760
:101D70000020B2E70010024004100240000042427E
:101D8000A00000200060FEFF411E0020B0EB116F9C
:101D90001CBF01207047044AF023516003490B70B7
:101DA000072190601160704710E000E023ED00E033
:101DB00010B5044640B394F83D0028B9002084F8DB
:101DC0003C00204600F022F8242084F83D002068E2
:101DD000C16821F40051C160204600F0B7FC2068C2
:101DE000016921F490410161416921F02A014161B9
:101DF000C16841F40051C16000202021206484F8B2
:101E00003D1084F83E1010BD012010BD70B586B0A5
:101E10000026194CCDE90466CDE902660068A4F5F8
:101E20004441884225D1154802AD416841F4003152
:101E30004160416801F4003101910199016841F06C
:101E4000040101602946006800F004000190019837
:101E50000220039004200290032005902046FEF704
:101E60001BFF082003962946029020460496FEF7A1
:101E700013FF06B070BD00BF0008014018100240FB
:101E8000FEE7000002680021536913F4806F0ED052
:101E9000D54B53612022016380F83D2080F83E102D
:101EA00080F83C10016C41F00401016401210846F6
:101EB000704700BF2DE9FC4B044600680E46DDF874
:101EC0002890DDF82C801D461746002201684B46FD
:101ED00041F480610160016841F480710160204635
:101EE0004FF00111CDF8008000F0EEF848B1206805
:101EF000006810F4807F1CBF4FF400702064032042
:101F000037E006F0FE0B20685A4E4A464346C0F8BA
:101F100010B02046314600F013F948BB002042467D
:101F200001902068416901914946806901900198BA
:101F3000204600F08CF998B9012D08D02068390AA4
:101F4000424601612046494600F081F940B92068C7
:101F5000F9B2424601612046494600F078F960B185
:101F6000206C042804D12068016841F400710160EC
:101F70000120C0B202B0BDE8F08B206800224B46C1
:101F8000016841F48071016020464FF00111CDF8E5
:101F9000008000F099F80028A9D120684BF00101D9
:101FA0004A46434601612046314600F0C9F8002800
:101FB00018BF012002B0BDE8F08B00BF2DE9FE4341
:101FC000044600680F460A9D0B9E994690460022E3
:101FD00001682B4641F48071016020464FF00111E9
:101FE000009600F071F848B12068006810F4807F16
:101FF0001CBF4FF40070206403200BE0206807F042
:10200000FE012A46334601611A49204600F098F83D
:1020100020B10120C0B203B0BDE8F08300203246F9
:1020200002902068416902912946806902900298D5
:10203000204600F00CF940B1206C0428E9D120685A
:10204000016841F400710160E3E7B9F1010F0AD0C2
:1020500020684FEA1821324601612046294600F0E7
:10206000F6F80028E8D120685FFA88F101610020C5
:10207000D0E700BF02000100F8B515460E46044641
:102080004F1C2068406910F0040F1AD12046FFF75A
:10209000F9FEA0B9002FF4D0FEF7E2FE16B1401B06
:1020A000B042EED900202021206384F83D1084F84E
:1020B0003E0084F83C00206C40F0200020640120A9
:1020C00000E0002001B0F0BD2DE9F047DDF82090E0
:1020D0009A46164680468FB201F47F045D1CB4F523
:1020E000803F4FF0180008BF1420D8F8001008589F
:1020F0003840C01BB0FA80F04009B0421CBF00203D
:10210000BDE8F087002DEAD0FEF7AAFEBAF1000F75
:1021100003D0A0EB09005045E1D900202021C8F8E8
:10212000300088F83D1088F83E0088F83C00D8F868
:10213000400040F02000C8F840000120BDE8F087D2
:102140002DE9F8439846164681468FB201F47F0583
:10215000541CD9F80000B5F5803F06D1014651F86E
:10216000142F3A40BA4206D121E081693940B94280
:102170001DD000F11401096811F4806F19D1002CF1
:10218000E7D0FEF76DFE1EB1A0EB0800B042E0D92B
:1021900000202021C9F8300089F83D1089F83E0060
:1021A00089F83C00D9F8400040F0200015E00020FC
:1021B00016E0016841F4007101600B4941610020A3
:1021C0002021C9F8300089F83D1089F83E0089F8CF
:1021D0003C00D9F8400040F00400C9F8400001205C
:1021E00001B0BDE8F08300BFFFFBFFFF70B51546EF
:1021F0000E4604462068416911F0400F1CBF0020C4
:1022000070BD416911F0100F10D1FEF729FE16B113
:10221000401BB042EED900202021206384F83D10FD
:1022200084F83E00206C40F020000AE06FF01001BE
:10223000416100202021206384F83D1084F83E0095
:10224000206C2064002084F83C00012070BDF8B5AB
:1022500015460E4604464F1C2068406910F0800F5A
:102260001AD12046FFF70EFEA0B9002FF4D0FEF7DA
:10227000F7FD16B1401BB042EED9002020212063AB
:1022800084F83D1084F83E0084F83C00206C40F057
:1022900020002064012000E0002001B0F0BD00001B
:1022A0002DE9F04385B001260DF113004FF47A7546
:1022B000D02175220123CDE9000660480295FFF781
:1022C00023F89DF8130068282FD15C4CDFF860904C
:1022D0004FF000080DF11207D0216B2201238DF879
:1022E0001280CDE9007602952046C8470720D0210C
:1022F000192201238DF812002046CDE900760295BF
:10230000C8472046D0211C2201238DF81280CDE938
:1023100000760295C8472046D0211B2201238DF864
:102320001280CDE900760295C84705B0BDE8F0837C
:10233000A5150008F0B585B04FF47A7006210DF1AF
:102340000E020123CDE9002102903C48D0213B221E
:10235000FEF7DAFFBDF80E00C0BA01F0F3F9184C31
:10236000184D22462B4601F005FA174E002233463F
:1023700001F000FA01F05CF8324FF861BDF810008E
:10238000C0BA01F0DFF922462B4601F0F3F9002232
:10239000334601F0EFF901F04BF83862BDF8120056
:1023A000C0BA01F0CFF922462B4601F0E3F9002232
:1023B000334601F0DFF901F03BF8786205B0F0BD7B
:1023C0001F85EB51B89E23400000103FB0B586B08A
:1023D0004FF47A7006210DF112020123CDE900219C
:1023E00002901648D0214322FEF78EFFBDF812005E
:1023F000C0BA01F0A7F9124C0022234601F04AF8B6
:1024000001F016F80F4DA862BDF81400C0BA01F033
:1024100099F90022234601F03DF801F009F8E8623D
:10242000BDF81600C0BA01F08DF90022234601F074
:1024300031F800F0FDFF286306B0B0BD2001002098
:102440000060604000000020FEE7FEE770470000EB
:1024500080B5A0484FF48061FDF79DFFBDE8804046
:1024600000F01AB97F2898BF3F2900D9704710B5EE
:102470000F4BB2FA82FC0F4C1B78002B4FF001037C
:1024800018BF4FEA5C1201F0070C04EA011103FACD
:102490000CF3DFF840C20844012A1CF80010BDE824
:1024A000104014BF994319430CF80010704700BF47
:1024B0007401002080FF0F006C4A5180108070472B
:1024C000B0B545487821012244F62063FEF790FD1F
:1024D000002400287ED1804D78200021AE22A8471C
:1024E000782000212022A847782000211022A84728
:1024F00078200021B022A84778200021C822A847D0
:10250000782000210022A847782000211022A84727
:10251000782000214022A847782000218122A84766
:1025200078200021FF22A84778200021A122A84777
:1025300078200021A622A84778200021A822A847B9
:10254000782000213F22A84778200021A422A84714
:1025500078200021D322A847782000210022A84714
:1025600078200021D522A84778200021F022A84712
:1025700078200021D922A847782000212222A847CC
:1025800078200021DA22A847782000211222A847CB
:1025900078200021DB22A847782000212022A847AC
:1025A000782000218D22A847782000211422A847F6
:1025B00078200021AF22A847782000212E22A847AA
:1025C00044484FF48061FDF7E6FE00F065F82748C7
:1025D000046001242046B0BD200100202DE9FE4FFB
:1025E000224C0E4615463378218819447F2904D899
:1025F000628871780A443F2A01D9002033E0B5FA95
:1026000085F20190203800274FF4004B4FEA521A10
:10261000029020E0029872684FF0000900FB0171FF
:1026200032F8118012E060882BFA09F212EA080FE2
:1026300000EB070120880CBF52462A4689B2484465
:1026400080B2FFF70FFF337809F10109D9B289454C
:10265000E9D371780137C9B28F42DBD32188D8B270
:1026600008442080019803B0BDE8F08F10010020DD
:1026700070B514460D46064609E029462246FFF786
:10268000ADFF014616F8010B814218BF70BD3078CE
:102690000028F2D1002070BD70B50E4C0E4E002502
:1026A000082D08BF70BDA5F150000021C2B27820EE
:1026B000B047782000210022B04778200021102266
:1026C000B047782040212246802300F083FA8034EE
:1026D0000135E5E778010020B52B00087047FFF7CA
:1026E00025B8B0B590B0002401A81421CDE90B4461
:1026F000CDE90944FDF74FFE4FF48030012102255A
:102700000790069108940A91CDE90D504FF4E0101E
:102710000F9006A8FFF77EF918B1EFF3108072B69C
:10272000FEE70F20022101904FF480600394CDE971
:10273000040401A80295FFF78FF818B1EFF3108099
:1027400072B6FEE710B0B0BD7047000010B5044689
:1027500000680169E26821F44051114341F20C62C2
:102760000161D4F808C0D4E904E3C16891434EEA9A
:102770000C021A431143C1604169A26921F44071FE
:10278000114341611149884202D0FFF7FFF801E08F
:10279000FFF706F919214843D4E900126FF06304EA
:1027A0009200B0FBF2F06422B0FBF2F303FB0400F2
:1027B000322404EB0010B0FBF2F000F0F00200F065
:1027C0000F0002EB03121043886010BD0038014077
:1027D000FEE7000010B5074C00F00F03044AB0F10B
:1027E000FF3F2344C8BF83180801187010BD00BF05
:1027F00000E400E014ED00E02DE9F04F85B0FEF7B5
:102800009BFFFFF76EFFCE48CE4F00224FF40056DD
:102810000024016807F54C4841F01001016001688F
:1028200001F0100101910199016841F0200101605E
:10283000016801F0200101910199016841F0040152
:102840000160016801F0040101910199016841F002
:10285000080101604FF40051006800F00800019089
:1028600001984046FEF7F7FA01250220CDE90165FF
:1028700001AE0394049040463146FEF70DFA302035
:10288000029431460190039507F548452846FEF726
:1028900003FA062000210022FEF7ACFF0620FEF717
:1028A0009BFFA948A94907F580524FF48043046271
:1028B000C0E90021C0E90244C0E90434C0E906448B
:1028C000FEF7D4FA18B1EFF3108072B6FEE7DFF826
:1028D00080924FF4E1310C22484640F8407FC0E935
:1028E0000114C0E90344C0E90524C461FFF760FA9C
:1028F00018B1EFF3108072B6FEE7CDF80080FFF755
:10290000CFFCFFF7DDFD934C0D201721A047944E1F
:10291000DFF850A290A00122A3463146D047DFF84D
:102920004882C047914C4FF4FA70A047904F31460F
:1029300001223846D047C0474FF4FA70A0473846C6
:1029400031460122D047C0474FF4FA70A0473846BD
:1029500031460122D047C0474FF4FA70A047FFF735
:1029600077FD002000215C46D847DFF80CB281A03B
:1029700001225946D04741200021A0477FA0594657
:102980000122D047C047062000210022FEF732FF77
:102990000620FEF721FFDFF8F4A1FEF761FAD9E97E
:1029A0000312401A904208D300984FF40051FEF7EA
:1029B0004AFAFEF755FAC9F80C0028462021FEF71E
:1029C0003DFA99F80010012806D151B9012089F883
:1029D0000000FEF715F904E0012904BF002089F882
:1029E000000028461021FEF729FA10B90020C9F886
:1029F0000800FEF735FAD9E90512401A9042C0F0F6
:102A00009980FFF797FCFFF7E1FCD9E90707D9F8B0
:102A10002440014601F00CF906463846394601F0DB
:102A200007F90146304600F0CFFF06462046214612
:102A300001F0FEF80146304600F0C6FF00F0CBFC86
:102A4000C9F83400D9F81C0000F092FF09F13808E9
:102A500002460B464BA14046D0473E4C0020112178
:102A6000A047404E404659460122B047D9F82000C1
:102A700000F07EFF02460B46404645A1D0470020AD
:102A80002221A047404659460122B047D9F82400E8
:102A900000F06EFF02460B4640463FA1D0470020A3
:102AA0003321A047404659460122B047D9F83400A7
:102AB00000F05EFF02460B46404639A1D047412058
:102AC0001121A047404659460122B047D9F8344069
:102AD000D9F804602046314601F0FEF94FF08241FA
:102AE00000F0E2FF07463046214601F0F5F94FF0CD
:102AF000824100F0D9FF384318BF012099F8011036
:102B0000D9F8082019B910B10132C9F80820404697
:102B100026A1FDF769FB41202221FFF7CDFC4046AD
:102B200059460122FFF7A4FDFFF7B6FDFEF798F91D
:102B3000C9F81400D9F83400C9F804002DE700BF23
:102B4000181002400044004020010020801A0600B6
:102B500000000020B92400084C6F6164696E6700B2
:102B6000900000207126000899260008590C0008E2
:102B70003C5500084163630098000020446574617F
:102B8000696C7300783A252E32660000E90100086E
:102B9000793A252E326600007A3A252E32660000F8
:102BA0004163633A252E326600000000737465703D
:102BB0003A256400E0B503460A208DF807208DF819
:102BC00006100DF106020090104819460223FEF788
:102BD000C5FA8CBD10B5C2B0844600200DF1080EB8
:102BE0008DF8081003E0545C714401304C70C1B2A0
:102BF0009942F8D30A2002AA61460090581C83B279
:102C00000248FEF7ABFA42B010BD00BF2001002021
:102C10005FEA400C08BF91F0000F4FEA8C234FEAA7
:102C2000C12243EA51514FEA1C5018BF00F5F04051
:102C30004FEA300018BF41F000415FEA6C5C00F0E1
:102C40002980BCF1FF3F08BF40F080407047130C63
:102C500006BF12044FF0100C4FF0000C130E04BF0F
:102C600012020CF1080C130F04BF12010CF1040C3A
:102C7000930F04BF92000CF1020CD30F04BF52005B
:102C80000CF1010C11464FF00002A0F11F00A0EB67
:102C90000C00704711F0004F08BF704731F0004141
:102CA0003FF4D5AF0B0C06BF09044FF0100C4FF0EA
:102CB000000C0B0E04BF09020CF1080C0B0F04BF33
:102CC00009010CF1040C8B0F04BF89000CF1020CFC
:102CD000CB0F04BF49000CF1010CCCF1200322FA08
:102CE00003F341EA030102FA0CF2A0EB0C0000F13D
:102CF0000100704723F07F4720F07F4C80EA0300FB
:102D000000F00040ACEB070303F57C5303F1FF0335
:102D10002DE9804909B44FEA144324EA03484FEAF5
:102D2000154B25EA0B4E0FF2042606EB13273E78CF
:102D300003FB0667C7F5000707FB06F64FEAD64612
:102D400006F102064FEA543707FB066CCCF1005C33
:102D50004FEA1C472CEA074C0CFB06F507FB06F470
:102D600004EB15464FEA961649085FEA320234BF73
:102D700000204FF000404FEAD13706FB07FC4FEA36
:102D80001C4C0CFB0BF7D21B03FB0CF761EB070190
:102D90000CFB0EF7B0EB074072EB17420CFB08F789
:102DA00034BFA2EB0742B2EB074261EB17414FEA97
:102DB0000C444FEA910706FB07FC4FEA1C4C0CFB46
:102DC0000BF7B0EBC74072EB573203FB0CF734BF85
:102DD000A2EBC742B2EBC74261EB57310CFB0EF7D7
:102DE000B0EBC70072EB57720CFB08F734BFA2EBD5
:102DF000C702B2EBC70261EB57714FEA816141EA4A
:102E000092114FEA826242EA90124FEA806004EB2C
:102E1000CC04039F4FEAD13706FB07FC4FEA1C4C5A
:102E20000CFB0BF7D21B03FB0CF761EB07010CFB50
:102E30000EF7B0EB074072EB17420CFB08F734BFFC
:102E4000A2EB0742B2EB074261EB17414FEA8C5508
:102E500004EB9C244FEA910706FB07FC4FEA1C4C4D
:102E60000CFB0BF7B0EBC74072EB573203FB0CF7D0
:102E700034BFA2EBC742B2EBC74261EB57310CFB48
:102E80000EF7B0EBC70072EB57720CFB08F734BFBC
:102E9000A2EBC702B2EBC70261EB57714FEA816147
:102EA00041EA92114FEA826242EA90124FEA806050
:102EB00015EB4C2544F100044FEAD13706FB07FC23
:102EC0004FEA1C4C0CFB0BF7D21B03FB0CF761EB1E
:102ED00007010CFB0EF7B0EB074072EB17420CFB3F
:102EE00008F734BFA2EB0742B2EB074261EB174190
:102EF0004FEA813141EA92414FEA823242EA9042FE
:102F00004FEA80304FEA0C7615EB1C1544F10004B3
:102F100048EA03434EEA0B484FF0000EB2EB080CB0
:102F200071EB030724BF624639464EEB0E0E4FF09D
:102F3000000B0018524149414BEB0B0BB2EB080C54
:102F400071EB03077BF1000B24BF624639464EEB61
:102F50000E0E4FF0000B0018524149414BEB0B0B8A
:102F6000B2EB080C71EB03077BF1000B24BF624648
:102F700039464EEB0E0E51EA020718BF46F0010625
:102F800016EB0E7655F1000254F1000103D5BDE8B1
:102F90008901BDE80088BDE88901BDE80048B6198F
:102FA000524141EB0101A3F10103704780807F7E14
:102FB0007D7C7B7A797877767675747372717170AF
:102FC0006F6E6E6D6C6C6B6A6A6968686766666561
:102FD0006464636362616160605F5F5E5E5D5D5CEF
:102FE0005C5B5B5A5A595958585757565655555560
:102FF0005454535352525251515050504F4F4F4EC0
:103000004E4D4D4D4C4C4C4B4B4B4A4A4A4949490D
:10301000484848474747474646464545454444444F
:103020004443434343424242424141419C46002B78
:1030300030D477002BD04FEA37071CB503B44FF0DC
:1030400010004FF01001BAF1000F06D0BCF1000FD4
:10305000DCBF40F0080040F008014FF000000FBC5A
:10306000BDE810400BF1010BBBF1010F08BF5FEA97
:10307000170722BF12F1010211F101014FF00041C7
:1030800043F1000300F0004043EA00007047F9D329
:103090005708D0E746EA06464FEA164613F1400FB6
:1030A0001FDD13F1200FDFBF16430A460021203336
:1030B0005B42BED0C3F1200746EA06464FEA1646F9
:1030C00002FA07F746EA070622FA03F2C3F12007DD
:1030D00001FA07F742EA070221FA03F14FF0000371
:1030E000A7E746EA020646EA06464FEA164646EAD9
:1030F0000106BCBF46EA0646360C4FF000034FF00F
:1031000000024FF0000194E72DE9804C70B49A461C
:10311000934691E8380007C831EA400C48BF34EACA
:10312000430C03D5FFF7E6FDFFF780FFF0BCBDE8D9
:10313000008C2DE9804C70B49A46934691E8380093
:1031400007C810F0804F08BF13F0804F03D100F084
:1031500005F8FFF76BFFF0BCBDE8008C20F07F475F
:1031600023F07F4C80EA030000F0004007EB0C03E3
:10317000A3F57C53A3F1FE0392F0000F00F0B3809F
:1031800095F0000F00F077802DE901494FEA1140DA
:1031900021EA00484FEA144624EA064700FB06FCF1
:1031A00008FB06F607FB08F818EB06484CEB164C34
:1031B00000FB07F718EB07484CEB17404FEA124BA0
:1031C00022EA0B4E4FEA154625EA06470BFB06FCA2
:1031D0000EFB06F607FB0EFE1EEB064E4CEB164CE6
:1031E0000BFB07F71EEB074E4CEB174B18EB0B08CE
:1031F00040F1000018EB0E0B58EB000840F1000006
:103200008F1A4FF000014FF000063CBFC943661B08
:1032100014BFB5EB040C00213CBFC943F61B4FEAB9
:10322000174427EA04454FEA1C472CEA074C04FBE5
:10323000076205FB07F70CFB05F616EB074642EBAA
:10324000174204FB0CFC16EB0C4642EB1C421BEB3A
:10325000060658EB020241414EEA8E0E46EA9E06F1
:1032600001D5BDE80189B619524141EB0101A3F135
:103270000103BDE801894FEA144524EA05464FEAF7
:10328000114721EA074C05FB07F406FB07F70CFB87
:1032900006F111EB074144EB174405FB0CFC11EB65
:1032A0000C4144EB1C444FEA124722EA074C05FB51
:1032B00007F206FB07F70CFB06F616EB074642EB98
:1032C000174205FB0CFC16EB0C4642EB1C456A183A
:1032D00054F1000148BF7047B619524141EB01015A
:1032E000A3F10103704795F0000F37D04FEA114268
:1032F00021EA02464FEA144724EA074C02FB07F191
:1033000006FB07F70CFB06F414EB074441EB1741EF
:1033100002FB0CFC14EB0C4441EB1C414FEA15473B
:1033200025EA074C02FB07F506FB07F70CFB06F640
:1033300016EB074645EB174502FB0CFC16EB0C465B
:1033400045EB1C42121951F1000148BF7047B619F4
:10335000524141EB0101A3F1010370474FEA1445CB
:1033600024EA05464FEA114721EA074C05FB07F11D
:1033700006FB07F70CFB06F212EB074241EB174185
:1033800005FB0CFC12EB0C4251EB1C414FF000060C
:1033900048BF7047921841EB0101A3F10103704748
:1033A000490050EAC12018BF04204A0D18BF40F060
:1033B000010040F2FF72B2EB515F08BF40F0020023
:1033C000012808BF0520704730380A2801D20120A3
:1033D00070470020704770B5054600F0F5FC0446C4
:1033E00020F00040C0F1FF40C00F08D025F00040A1
:1033F000C0F1FF40C00F04BF0120FCF7FBFF2046D7
:1034000070BD000010B500290AD00878002807D048
:1034100005487844FDF7ACFB002801D0002010BD22
:103420000248784410BD00004E21000046210000F3
:1034300021F0004201F00043A2F16052B2F5801F7A
:1034400028BFD2F17F6C0BD95FEA001C43EAC202AD
:1034500042EB507018BF704728BF20F00100704742
:10346000B2F5801FBCBF184670474FEA410C1CF5EF
:10347000001F02D2084600F0A2BC70B500F024FA8A
:1034800000000089FFF7F6BF4FF00040A0F5800074
:10349000704700002DE9C04130B4DFF8A0C23CEA1B
:1034A000111418BF3CEA131400F0EC801CEA11144C
:1034B00081EA030544EAD57418BF1CEA131500F02D
:1034C000C780A4EB050404F17F7404F500344FF0C9
:1034D000004545EAC12145EAC32341EA505143EA88
:1034E00052534FEAC0204FEAC222994208BF90428D
:1034F00000F09C804FEA13650FF24016765D4FEAAC
:10350000134506FB05F7C7F1807706FB07F74FEA7F
:10351000D737A7FB03687642A7FB06CEC8F58038ED
:1035200038BFA8F1010807FB08E6A6FB028C4FF0A4
:10353000000EE6FB03CEDCF1000CCEF1004E38BFEE
:10354000AEF1010EA6FB0C584FF00007E6FB0E870C
:10355000A1FB08C6A0FB07CE16EB0E064FF0000538
:1035600045F10005E1FB076515F1E04E7EBFA4F5CE
:1035700080345FEA46066D4116F1800745F100058B
:103580004FEA172747EA05674FEA15254FEA06660F
:10359000A6F1DE46B6F1805F1FD9384605EBC4714F
:1035A00024F0010C01EB0C11BCF1FE6F02D8F0BC51
:1035B000BDE8008124425CBF01F5801E9EEAC47F05
:1035C00002D4F0BCBDE80081244238D4A1F1C0414E
:1035D000F0BCBDE8004100F0C5B94FEAD02040EA98
:1035E00041504FEAD1214FEAD22242EA43524FEAF8
:1035F000D323A7FB028607FB036605FB02661EEAD0
:103600000E0F58BFA6EB0056B6EB00564FEA520E0F
:103610004EEAC37E18EB0E0E56EB530EBDD518EBDB
:1036200002085E417F1C55F10005B6E74FF4801596
:103630004FF000074FF000064FF00008ADE701F132
:10364000C04101F000414FF00000F0BCBDE8008136
:103650000CEA131511EA0C1F00D00CE013EA0C1F42
:1036600000F025804FF0000081EA030101F00041E5
:10367000F0BCBDE80081F0BCBDE8004181EA030177
:1036800000F070B9F0BCBDE8004170B500F01CF965
:10369000097EFC3E00F007B84FF0000081EA03010C
:1036A00001F00041704781EA030100F05BB9F0BC12
:1036B000BDE8004122494FF000007047FFFDFBF9D3
:1036C000F7F5F4F2F0EEEDEBE9E8E6E4E3E1E0DE55
:1036D000DDDBDAD8D7D5D4D3D1D0CFCDCCCBCAC8C7
:1036E000C7C6C5C4C2C1C0BFBEBDBCBBBAB9B8B7EE
:1036F000B6B5B4B3B2B1B0AFAEADACABAAA9A8A8E1
:10370000A7A6A5A4A3A3A2A1A09F9F9E9D9C9C9BAE
:103710009A99999897979695959493939291919059
:103720008F8F8E8E8D8C8C8B8B8A898988888787EA
:103730008685858484838382828181800000FF075F
:103740000000F87F10F0004248BF4042B0FA80F31A
:1037500010FA03F10AD0C3F11D0303F5806302EBF5
:1037600003524FEA415002EBD12170474FF0000065
:103770007047000070B5DFF848C11CEA111E1EBF7B
:103780001CEA13159EEA0C0F95EA0C0F00F06F80EF
:1037900081EA03044EEAD47EAE4421EA4C1123EAC6
:1037A0004C1341F4801143F48013AEF17F7EA1FBF2
:1037B000024CA0FB0365361955EB0C05A1FB034C2D
:1037C0004CF10003A0FB021C16EB0C06654153F103
:1037D0000003094218BF46F0010613F4007F0BD125
:1037E0004FEA03314FEA053041EA155140EA1650DD
:1037F00034036FF003020AE04FEAC3214FEAC52009
:1038000041EA555140EA5650F4026FF0020202EBD1
:103810002E4201EB025585EACE710AD05FEA440CD4
:1038200018BF24F0004450F1000041F1000120EAEB
:10383000D47040F2FE7C624500D270BDA84214BF35
:103840004FF080444FF04044002E08BF0024BEF1EA
:10385000806FA8BFA1F1C041BDE8704080F28280B6
:1038600001F1C04101F000414FF0000070470CEA47
:1038700013159EEA0C0F18BF95EA0C0F06D081EACB
:10388000030E4FF000000EF0004170BD00F01CF878
:103890008900013E00F007B800F009B84FEA430C78
:1038A0005FEA5C5C08D081EA030100F05BB84FEA94
:1038B000410C5FEA5C5CF6D102494FF000007047B2
:1038C0000000FF070000F87F0EF1020E2EF0030E3D
:1038D0005EF8046B364205D4012A43EB030515F567
:1038E000001F12D8012841EB010C1CF5001F0CD859
:1038F0000ED14FEAD17C0CEB4C0C0CF1020C15F5FF
:10390000001F08BF4CEBD37C04E04FF0080C01E033
:103910004FEAD37C0CEB4C0526FA05F606F00706B9
:10392000B6F1040C06D20EEB860CBDE870404CF0EC
:10393000010C6047DFE80CF0090B02024FF0004178
:10394000A1F500214FF0000070BD19461046012876
:1039500051EB010418BFD4F5001484BF002001F01E
:10396000004170BD0808A0F500114FEA3101704711
:1039700043004FEAD30C4FEA3C0C43401FBF4007C3
:103980000CF1605113F0FE4F70471CF0006F03D133
:103990000CF00041002070470CF0004343EA5070E7
:1039A00040EACC0010B500F0C4F900BF000000925E
:1039B0004FEA0001FFF7D6BF4FF00041A1F500210B
:1039C0004FF000007047000090EA010F48BF81F0FF
:1039D000004100F18882421A3CBF801A89184FEAE0
:1039E000D052A2EBD1534FF07F4C1CEA410F18BFCD
:1039F0009CEA026F00F03B804FF0004C4CEA002044
:103A00004CEA012121FA03FC10EB0C0C1ED202F14E
:103A1000FF325FEA1C2040EBC25038BF70471CF0F9
:103A20007F0F4FEA400C18BFBCF17F4F38BF704783
:103A3000C3F12003994008BF20F00100BCF17F4F83
:103A400038BF7047A0F1C04000F0B9B94FEA3C0060
:103A5000000A40EBC25028BF1CF0FF0F4FEA400C99
:103A6000E6D018BFBCF17F4F38BF7047EAE79CEA49
:103A7000026F05D010EA5C0F08BF00F000407047ED
:103A800010B500F056F900BF64FBBE3E10B500F063
:103A900033F80CBF0120002010BD10B500F02CF849
:103AA00014BF0120002010BD10B500F059F88CBFE4
:103AB0000120002010BD10B500F052F82CBF0120ED
:103AC000002010BD10B500F07FF894BF0120002049
:103AD00010BD10B500F078F834BF0120002010BDF3
:103AE000401058BFC0F14040491058BFC1F140419B
:103AF0008142EFF30080704750EA010C00F113801F
:103B00001CF5000F58BFBCF5000F01D48842704768
:103B100007D710F5000F58BF11F5000F15D48842D4
:103B20007047894270471CF5000F04D5BCF5000FA3
:103B3000F7D5814270474FF0807C1CEB400F38BFB7
:103B40001CEB410F01D28142704710B500F0F1F833
:103B5000922449004FF000504FF08051FFF7C0BF52
:103B600050EA010C00F113801CF5000F58BFBCF5A2
:103B7000000F01D48842704707D710F5000F58BFD7
:103B800011F5000F15D488427047894270471CF523
:103B9000000F04D5BCF5000FF7D5814270474FF0F8
:103BA000807C1CEB400F38BF1CEB410F01D28142DF
:103BB000704710B500F0BDF8922449004FF08050D6
:103BC0004FF00051FFF78CBF50EA010C00F1138059
:103BD0001CF5000F58BFBCF5000F01D48842704798
:103BE00007D710F5000F58BF11F5000F15D4884204
:103BF0007047894270471CF5000F04D5BCF5000FD3
:103C0000F7D5814270474FF0807C1CEB400F38BFE6
:103C10001CEB410F01D28142704710B500F089F8CA
:103C2000922449004FF000504FF08051FFF758BFE9
:103C30004FF47F0C1CEAD0121EBF1CEAD11392EA8B
:103C40000C0F93EA0C0F00F0478090EA010F48BF79
:103C500042F480724FF0004C4CEA00204CEA012103
:103C600002EB0302A0FB0113A2F50002002918BF1A
:103C700043F001035B0028BF4FEA330342EB2242CB
:103C80005FEA132C4CEBC2502EBFBCEB436FB2F576
:103C90007C0F70474FEA036CBCF1004F08BF20F067
:103CA0000100B2F57C0F38BF70470BD582F0FF02E0
:103CB00012F5803FC8BF704700F1C040D8BF00F088
:103CC0000040704700F5000C5FEA4C0C48BF70479D
:103CD000B0F1C04000F073B80CEAD11390EA010FC4
:103CE00048BF42F48072624538BF634504D280EA1F
:103CF000010000F00040704710B500F01AF800BF56
:103D00008900013E00F007B800F009B85FEA410CF5
:103D10005FEA1C6C08D080EA010000F050B85FEA4E
:103D2000400C5FEA1C6CF6D14FF00040A0F580001B
:103D300070470EF1020E2EF0030E5EF8044B244283
:103D400004D44FEA4102B2F17F4F11D84FEA400349
:103D5000B3F17F4F0CD80ED14FEAD07C0CEB4C0C5A
:103D60000CF1020CB2F17F4F08BF4CEBD17C04E0A8
:103D70004FF0080C01E04FEAD17C0CEB4C0324FA25
:103D800003F404F00704B4F1040C06D20EEB840C27
:103D9000BDE810404CF0010C6047DFE80CF007086C
:103DA00002024FF00040A0F5800010BD084642001E
:103DB00018BFD2F1807288BF00F0004010BDFF2113
:103DC00041EAD050C00570474FEAD051002988BF62
:103DD000D1F1FF0240F275804FEA002040F0004030
:103DE00070B501F17D01490838BF40080EA2430EAD
:103DF000D25C040C02FB02F304FB03F3C3F1404367
:103E0000A3FB0254ED0D45EA442202FB02F3A0FBA2
:103E100003546D42C4F1404438BF641EA2FB053513
:103E20000023E2FB0453EA0B42EA4342A0FB0232C6
:103E300012F14004E409A2F1210303F07F031F2BD8
:103E400032D904EBC15070BDFEFAF7F3F0ECE9E6AD
:103E5000E4E1DEDCD9D7D4D2D0CECCCAC8C6C4C245
:103E6000C1BFBDBCBAB9B7B6B4B3B2B0AFAEACABFC
:103E7000AAA9A8A7A6A4A3A2A1A09F9E9E9D9C9B21
:103E80009A999897979695949393929190908F8EF4
:103E90008E8D8C8C8B8A8A89898887878686858493
:103EA000848383828281818004FB04F6B6EB004622
:103EB00003D5E64248BF641CC3E7A64258BF641C52
:103EC000BFE711F0FF0F02D100F00040704710B5BE
:103ED000FFF72FFF7FDBFFBE90EA010F48BF81F0A5
:103EE00000413FF578AD421A04D882F00042A0EBC1
:103EF000020011444FEAD052A2EBD1534FF07F4C55
:103F00001CEA410F18BF9CEA026F4AD04FF0004CE8
:103F10004CEA00204CEA012121FA03FCB0EB0C0C26
:103F20000FD412F0FE0F36D05FEA4C001DD5001200
:103F300040EBC25038BF70471CF03F0F18BF7047AE
:103F40000BE05FEA1C20A2F1010240EBC25038BF37
:103F500070471CF07F0F18BF7047C3F120039940D2
:103F600014BF401E20F0010070474FEA1223800862
:103F700008BF7047B0FA80FCA2EB0C02CCF1280C11
:103F800060FA0CF093EA122F04BF00EBC2507047A6
:103F90004FEAC3707047130A5FEADC1008BF70472E
:103FA000F6E79CEA026F04D010EA5C0F08BF00201D
:103FB000704710B5FFF7BDFE40DFF63E81F00040D0
:103FC0007047FCF74EBB000002400000000000A05C
:103FD0000000000005400000000000C800000000D4
:103FE0000C4000000000409C000000001940000050
:103FF0000020BCBE0000000034400000BFC91B8E82
:1040000000000004B5400000504BCFD06607E2CF5F
:10401000010000006C4100003E8251AADFEEA7348F
:1040200001000000D9420000DCB5A0E23A301F9741
:10403000FFFFFFFFB4450000FD25A0C8E9A3C14F65
:10404000FFFFFFFFFF3F00000000008000000000B6
:10405000FF3F0000000000800000000000000000A2
:104060000000000001020304060708090000000028
:104070000102030400000000000000000000000036
:104080000000000000000000000000000000000030
:1040900000000000000000000000000C000C000CFC
:1040A000000C000C000C000C000C000C000C000CB0
:1040B0000000000C000C0000000000000000001BCD
:1040C000001B001B001B001B000000000000000084
:1040D00000000000000000000000000000000000E0
:1040E00000008019801980198019C07FC07F801955
:1040F0000033C07FC07F0033003300330033000043
:10410000000000000000001E003F80758065007404
:10411000003C001E00078005806580658075003FBB
:10412000001E0004000400000000007000D840D809
:10413000C0D880D900730006000C801BC036C06652
:10414000C046C00680030000000000000000001E02
:10415000003F003300330033001E000CC03CC0663B
:10416000806380618063C03E801C0000000000000E
:104170000000000C000C000C000C000C0000000003
:10418000000000000000000000000000000000002F
:10419000000000008000000100030006000600048B
:1041A000000C000C000C000C000C000C00040006BD
:1041B0000006000300018000002000100018000C21
:1041C000000C0004000600060006000600060006BB
:1041D0000004000C000C0018001000200000000C6F
:1041E000002D003F001E0033000000000000000012
:1041F00000000000000000000000000000000000BF
:10420000000000000000000C000C000C000CC0FFBF
:10421000C0FF000C000C000C000C000000000000AF
:10422000000000000000000000000000000000008E
:104230000000000000000000000000000000000C72
:10424000000C000400040008000000000000000052
:1042500000000000000000000000001E001E000022
:10426000000000000000000000000000000000004E
:10427000000000000000000000000000000000003E
:10428000000000000000000C000C00000000000016
:1042900000000003000300030006000600060006FD
:1042A000000C000C000C000C001800180018000096
:1042B000000000000000001E003F003380618061AC
:1042C0008061806D806D8061806180610033003F1E
:1042D000001E00000000000000000006000E001E8E
:1042E000003600260006000600060006000600064E
:1042F0000006000600060000000000000000001E8E
:10430000003F807380618061800100030006000C23
:10431000001800300060807F807F000000000000F7
:104320000000001C003E006300630003000E000E4E
:1043300000038001800180618073003F001E000047
:104340000000000000000006000E000E001E001E0F
:104350000016003600360066807F807F000600066B
:1043600000060000000000000000007F007F0060E9
:1043700000600060006E007F8063800180018061CA
:104380008073003F001E0000000000000000001EBF
:10439000003F803380610060006E007F8073806129
:1043A000806180618033003F001E0000000000003B
:1043B0000000807F807F800100030003000600066C
:1043C000000C000C000C0008001800180018000079
:1043D000000000000000001E003F806380618061DB
:1043E0000021001E003F8061806180618061003F8C
:1043F000001E0000000000000000001E003F0073CF
:104400008061806180618073803F801D8001806158
:104410000073003F001E00000000000000000000CC
:10442000000000000000000C000C00000000000074
:10443000000000000000000C000C00000000000064
:10444000000000000000000000000000000C000C54
:1044500000000000000000000000000C000C000440
:10446000000400080000000000000000800080033D
:10447000000E003800600038000E8003800000004D
:10448000000000000000000000000000000000002C
:104490000000807F807F00000000807F807F000020
:1044A000000000000000000000000000000000000C
:1044B0000000000000400070001C000780010007A1
:1044C000001C007000400000000000000000000020
:1044D0000000001F803FC071C060C000C0018003A9
:1044E0000007000E000C000C0000000C000C000087
:1044F000000000000000001E003F803180718063DA
:10450000806F806D806D806F806700600032003E3C
:10451000001C0000000000000000000E000E001B48
:10452000001B001B001B80318031803F803F8031A9
:10453000C060C060C0600000000000000000007C9F
:10454000007E0063006300630063007E007E006302
:10455000806180618063007F007E000000000000B9
:104560000000001E003F803180610060006000603C
:1045700000600060006080618031003F001E00002C
:10458000000000000000007C007F00638063806109
:104590008061806180618061806100630063007E72
:1045A000007C0000000000000000807F807F006031
:1045B000006000600060007F007F006000600060BD
:1045C0000060807F807F0000000000000000807F8E
:1045D000807F0060006000600060007F007F0060FE
:1045E00000600060006000600060000000000000EB
:1045F0000000001E003F80318061006000600060AC
:1046000080638063806180618031803F001E000094
:104610000000000000008061806180618061806135
:104620008061807F807F8061806180618061806146
:1046300080610000000000000000003F003F000C0F
:10464000000C000C000C000C000C000C000C000C0A
:10465000000C003F003F000000000000000080014F
:104660008001800180018001800180018001800142
:10467000806180618073003F001E00000000000028
:104680000000C0608061006300660066006C007816
:10469000007C00660066006380618061C06000008D
:1046A000000000000000006000600060006000602A
:1046B0000060006000600060006000600060807F5B
:1046C000807F0000000000000000C071C071C07B4E
:1046D000C07AC06AC06AC06EC064C060C060C0609A
:1046E000C060C060C0600000000000000000807179
:1046F0008071807980798079806D806D806D806532
:10470000806780678067806380630000000000002E
:104710000000001E003F0033806180618061806185
:1047200080618061806180610033003F001E000075
:10473000000000000000007E007F806380618061D7
:1047400080618063007F007E006000600060006028
:1047500000600000000000000000001E003F003369
:104760008061806180618061806180618065806737
:104770000033803F401E0000000000000000007E6B
:10478000007F8063806180618063007F007E0066BF
:104790000063006380618061C06000000000000071
:1047A0000000000E001F8031803100300038001EF4
:1047B00000078003806180618031003F001E00009F
:1047C000000000000000C0FFC0FF000C000C000C47
:1047D000000C000C000C000C000C000C000C000C79
:1047E000000C00000000000000008061806180611A
:1047F00080618061806180618061806180618061B1
:104800008073003F001E0000000000000000C06038
:10481000C060C060803180318031001B001B001BF4
:10482000001B000E000E000E00040000000000003F
:104830000000C0C0C0C0C0C0C0C0C0C0C0CC804CA0
:10484000804C805E80528052807380618061000065
:10485000000000000000C0C0806080610033003BA9
:10486000001E000C000C001E001F003B80718061C8
:10487000C0C00000000000000000C0C08061806176
:1048800000330033001E001E000C000C000C000C56
:10489000000C000C000C0000000000000000803F35
:1048A000803F8001000300030006000C000C00188C
:1048B000001800300060807F807F00000000000052
:1048C000000F000F000C000C000C000C000C000C82
:1048D000000C000C000C000C000C000C000C000C78
:1048E000000F000F0000001800180018000C000C4A
:1048F000000C000C00060006000600060003000382
:104900000003000000000000001E001E000600065C
:104910000006000600060006000600060006000667
:104920000006000600060006001E001E0000000C27
:10493000000C001E00120033003380618061000013
:104940000000000000000000000000000000000067
:104950000000000000000000000000000000000057
:104960000000000000000000000000000000000047
:10497000E0FF0000000000380018000C00000000FC
:104980000000000000000000000000000000000027
:104990000000000000000000000000000000000017
:1049A0000000001F803F80618001801F803F806188
:1049B0008063807FC03800000000000000000060BD
:1049C000006000600060006E007F80738061806125
:1049D000806180618073007F006E00000000000035
:1049E00000000000000000000000001E003F807377
:1049F00080610060006080618073003F001E0000E5
:104A00000000000000008001800180018001801D05
:104A1000803F807380618061806180618073803FAE
:104A2000801D0000000000000000000000000000E9
:104A30000000001E003F00738061807F807F006067
:104A40008071003F001E0000000000000000C00751
:104A5000C00F000C000C807F807F000C000C000C4D
:104A6000000C000C000C000C000C0000000000000A
:104A70000000000000000000801D803F8073806106
:104A80008061806180618073803F801D80018063D0
:104A9000007F003E00000060006000600060006F6A
:104AA000807F8071806180618061806180618061D0
:104AB0008061000000000000000000060006000009
:104AC0000000003E003E000600060006000600064C
:104AD00000060006000600000000000000060006B8
:104AE00000000000003E003E000600060006000632
:104AF000000600060006000600060046007E003C98
:104B0000000000600060006000608061006300667B
:104B1000006C007C0076006300638061C060000070
:104B2000000000000000003E003E000600060006F7
:104B30000006000600060006000600060006000645
:104B4000000600000000000000000000000000005F
:104B5000000080DDC0FFC0CEC0CCC0CCC0CCC0CC7B
:104B6000C0CCC0CCC0CC00000000000000000000A1
:104B7000000000000000006F807F80718061806114
:104B800080618061806180618061000000000000C0
:104B900000000000000000000000001E003F8073C5
:104BA00080618061806180618073003F001E000031
:104BB000000000000000000000000000006E007F08
:104BC000807380618061806180618073007F006E8E
:104BD0000060006000600060000000000000000055
:104BE000801D803F807380618061806180618073FF
:104BF000803F801D80018001800180010000000055
:104C00000000000000000067803F003900300030E5
:104C100000300030003000300030000000000000A4
:104C200000000000000000000000001E803F8061C6
:104C30000060007F803F80018061007F001E0000D7
:104C40000000000000000000000800180018007FAD
:104C5000007F001800180018001800180018801FA6
:104C6000800F0000000000000000000000000000B5
:104C7000000080618061806180618061806180610D
:104C80008063807F803D0000000000000000000085
:104C9000000000000000C060803180318031001BC6
:104CA000001B001B000E000E0006000000000000AC
:104CB0000000000000000000000080DD80DD80DDDD
:104CC00000550055005500770077002200220000B3
:104CD00000000000000000000000000000008061F3
:104CE00000330033001E000C000C001E00330033A4
:104CF00080610000000000000000000000000000D3
:104D000080618061803100330033001B001B001B79
:104D1000000E000E000E001C007C00700000000061
:104D2000000000000000C07FC07F8001000300067B
:104D3000000C00180030C07FC07F000000000000A1
:104D40008003800700060006000600060006000E2D
:104D5000001C001C000E00060006000600060006EF
:104D60008007800300060006000600060006000615
:104D70000006000600060006000600060006000603
:104D800000060006000600060038003C000C000C7F
:104D9000000C000C000C000E00070007000E000CB9
:104DA000000C000C000C000C003C0038000000005F
:104DB000000000000000000000008038807F0047F5
:104DC00000000000000000000000000000000000E3
:104DD00000000000000000000000000000000000D3
:104DE0000000000000100010001000100010001063
:104DF000000000100000000000280028002800002B
:104E0000000000000000000000000000002400245A
:104E1000007C00240048007C00480048000000009E
:104E2000003800540050003800140054005400387A
:104E300000100000002000540058003000280054EA
:104E400000140008000000000010002800280010D6
:104E5000003400480048003400000000001000103A
:104E60000010000000000000000000000000000032
:104E7000000800100020002000200020002000205A
:104E800000100008002000100008000800080008BA
:104E90000008000800100020001000380010002852
:104EA0000000000000000000000000000000000002
:104EB00000100010007C0010001000000000000036
:104EC00000000000000000000000000000000010D2
:104ED000001000100000000000000000000000387A
:104EE00000000000000000000000000000000000C2
:104EF0000000000000000010000000000008000892
:104F00000010001000100010002000200000000021
:104F10000038004400440054004400440044003879
:104F200000000000001000300050001000100010C1
:104F3000001000100000000000380044004400048D
:104F4000000800100020007C000000000038004431
:104F500000040018000400040044003800000000B1
:104F600000080018002800280048007C00080008FD
:104F700000000000007C00400040007800040004B5
:104F80000044003800000000003800440040007871
:104F9000004400440044003800000000007C00048D
:104FA0000008001000100020002000200000000079
:104FB00000380044004400380044004400440038F5
:104FC000000000000038004400440044003C00049D
:104FD0000044003800000000000000000010000045
:104FE00000000000000000100000000000000000B1
:104FF0000000001000000000000000100010001071
:1050000000000000000C003000400030000C0000E8
:1050100000000000000000000000007C0000007C98
:105020000000000000000000000000000060001808
:105030000004001800600000000000000038004478
:105040000004000800100010000000100000000024
:1050500000380044004C0054005C00400040003820
:105060000000000000100028002800280028007C14
:105070000044004400000000007800440044007830
:105080000044004400440078000000000038004460
:105090000040004000400040004400380000000094
:1050A0000070004800440044004400440048007080
:1050B00000000000007C00400040007C00400040F8
:1050C0000040007C00000000007C004000400078B0
:1050D0000040004000400040000000000038004454
:1050E00000400040005C0044004400380000000024
:1050F000004400440044007C004400440044004458
:105100000000000000380010001000100010001017
:105110000010003800000000000400040004000437
:10512000000400040044003800000000004400486F
:10513000005000600050004800480044000000009B
:105140000040004000400040004000400040007C23
:10515000000000000044006C006C00540044004457
:105160000044004400000000004400640064005457
:105170000054004C004C0044000000000038004483
:105180000044004400440044004400380000000093
:105190000078004400440044007800400040004093
:1051A0000000000000380044004400440044004473
:1051B000005400380004000000780044004400441B
:1051C0000078004800480044000000000038004417
:1051D00000400030000800040044003800000000D7
:1051E000007C0010001000100010001000100010D3
:1051F0000000000000440044004400440044004417
:10520000004400380000000000440044004400282E
:105210000028002800100010000000000044004496
:10522000005400540054006C0028002800000000C6
:105230000044002800280010001000280028004426
:105240000000000000440044002800280010001066
:105250000010001000000000007C00040008001096
:10526000001000200040007C00000000001800102A
:1052700000100010001000100010001000100018A6
:10528000002000200010001000100010000800088E
:10529000000000000030001000100010001000108E
:1052A00000100010001000300010002800280044FA
:1052B00000000000000000000000000000000000EE
:1052C000000000000000000000000000000000FEE0
:1052D000002000100000000000000000000000009E
:1052E000000000000000000000380044003C0044C2
:1052F000004C0034000000000040004000580064F2
:105300000044004400640058000000000000000059
:105310000038004400400040004400380000000015
:10532000000400040034004C00440044004C0034ED
:10533000000000000000000000380044007C004035
:105340000044003800000000000C0010007C001039
:10535000001000100010001000000000000000000D
:105360000034004C00440044004C00340004007839
:1053700000400040005800640044004400440044E1
:10538000000000000010000000700010001000106D
:10539000001000100000000000100000007000105D
:1053A0000010001000100010001000E0004000404D
:1053B0000048005000600050004800440000000019
:1053C00000700010001000100010001000100010FD
:1053D0000000000000000000007800540054005459
:1053E0000054005400000000000000000058006459
:1053F000004400440044004400000000000000009D
:10540000003800440044004400440038000000001C
:10541000000000000058006400440044006400588C
:1054200000400040000000000034004C00440044F4
:10543000004C003400040004000000000058006428
:10544000004000400040004000000000000000005C
:10545000003800440030000800440038000000001C
:1054600000200020007800200020002000200018EC
:10547000000000000000000000440044004400441C
:10548000004C003400000000000000000044004414
:105490000028002800280010000000000000000084
:1054A000005400540054006C002800280000000044
:1054B00000000000004400280010001000280044F4
:1054C0000000000000000000004400440028002804
:1054D000001000100010006000000000007C0008B8
:1054E000001000200040007C0000000000180010A8
:1054F0000010001000200020001000100010001804
:10550000001000100010001000100010001000101B
:1055100000100010003000100010001000080008FB
:1055200000100010001000300000000000000074A7
:10553000004C000000000000000000002E000000F1
:105540008055000800000020B0000000280100087D
:1055500030560008B0000020C80A000044010008CE
:105560001C00000043000000F8FFFFFF0C000000DB
:105570000E0000000F0000002E00000000000000E0
:1055800000000000000028410000000000000000B2
:10559000F401000000000000F40100000000000021
:1055A00000000000000000000000000000000000FB
:1055B00000000000000000000000000000000000EB
:1055C00000000000000000000000000000000000DB
:1055D00000000000000000000000000000000000CB
:1055E00000000000000000000000000000000000BB
:1055F00000000000000000000000000000000000AB
:105600000000000001000000100000000000000089
:105610000B12000074400008070A0000D04D00087B
:105620000024F40000000000000000000000000062
:04000005080000ED02
:00000001FF
